{
  "contractName": "ProfileVerification",
  "abi": [
    {
      "anonymous": false,
      "inputs": [
        {
          "indexed": false,
          "internalType": "address",
          "name": "user",
          "type": "address"
        },
        {
          "indexed": false,
          "internalType": "string",
          "name": "hashedProfile",
          "type": "string"
        }
      ],
      "name": "ProfileCreated",
      "type": "event"
    },
    {
      "anonymous": false,
      "inputs": [
        {
          "indexed": false,
          "internalType": "address",
          "name": "user",
          "type": "address"
        }
      ],
      "name": "ProfileVerified",
      "type": "event"
    },
    {
      "inputs": [
        {
          "internalType": "address",
          "name": "",
          "type": "address"
        }
      ],
      "name": "profiles",
      "outputs": [
        {
          "internalType": "string",
          "name": "",
          "type": "string"
        }
      ],
      "stateMutability": "view",
      "type": "function",
      "constant": true
    },
    {
      "inputs": [
        {
          "internalType": "address",
          "name": "",
          "type": "address"
        }
      ],
      "name": "verified",
      "outputs": [
        {
          "internalType": "bool",
          "name": "",
          "type": "bool"
        }
      ],
      "stateMutability": "view",
      "type": "function",
      "constant": true
    },
    {
      "inputs": [
        {
          "internalType": "string",
          "name": "name",
          "type": "string"
        },
        {
          "internalType": "string",
          "name": "email",
          "type": "string"
        }
      ],
      "name": "createProfile",
      "outputs": [],
      "stateMutability": "nonpayable",
      "type": "function"
    },
    {
      "inputs": [
        {
          "internalType": "address",
          "name": "user",
          "type": "address"
        }
      ],
      "name": "getProfile",
      "outputs": [
        {
          "internalType": "string",
          "name": "",
          "type": "string"
        }
      ],
      "stateMutability": "view",
      "type": "function",
      "constant": true
    },
    {
      "inputs": [
        {
          "internalType": "address",
          "name": "user",
          "type": "address"
        }
      ],
      "name": "verifyProfile",
      "outputs": [],
      "stateMutability": "nonpayable",
      "type": "function"
    }
  ],
  "bytecode": "0x608060405234801561001057600080fd5b50610ab5806100206000396000f3fe608060405234801561001057600080fd5b50600436106100575760003560e01c80630db065f41461005c5780630f53a4701461008c578063ba1feb8a146100bc578063bbe15627146100d8578063dfaef65914610108575b600080fd5b61007660048036038101906100719190610636565b610124565b6040516100839190610842565b60405180910390f35b6100a660048036038101906100a19190610636565b610144565b6040516100b3919061085d565b60405180910390f35b6100d660048036038101906100d1919061065f565b610214565b005b6100f260048036038101906100ed9190610636565b6102cb565b6040516100ff919061085d565b60405180910390f35b610122600480360381019061011d9190610636565b61036b565b005b60016020528060005260406000206000915054906101000a900460ff1681565b60606000808373ffffffffffffffffffffffffffffffffffffffff1673ffffffffffffffffffffffffffffffffffffffff168152602001908152602001600020805461018f906109c7565b80601f01602080910402602001604051908101604052809291908181526020018280546101bb906109c7565b80156102085780601f106101dd57610100808354040283529160200191610208565b820191906000526020600020905b8154815290600101906020018083116101eb57829003601f168201915b50505050509050919050565b600082826040516020016102299291906107d3565b6040516020818303038152906040529050806000803373ffffffffffffffffffffffffffffffffffffffff1673ffffffffffffffffffffffffffffffffffffffff168152602001908152602001600020908051906020019061028c929190610516565b507fbafddecbd1dec1c1afb76d693f1de16901f521bdf29a02438e3e6806c0b8d94833826040516102be929190610812565b60405180910390a1505050565b600060205280600052604060002060009150905080546102ea906109c7565b80601f0160208091040260200160405190810160405280929190818152602001828054610316906109c7565b80156103635780601f1061033857610100808354040283529160200191610363565b820191906000526020600020905b81548152906001019060200180831161034657829003601f168201915b505050505081565b60008060008373ffffffffffffffffffffffffffffffffffffffff1673ffffffffffffffffffffffffffffffffffffffff16815260200190815260200160002080546103b6906109c7565b9050116103f8576040517f08c379a00000000000000000000000000000000000000000000000000000000081526004016103ef9061089f565b60405180910390fd5b600160008273ffffffffffffffffffffffffffffffffffffffff1673ffffffffffffffffffffffffffffffffffffffff16815260200190815260200160002060009054906101000a900460ff1615610485576040517f08c379a000000000000000000000000000000000000000000000000000000000815260040161047c9061087f565b60405180910390fd5b60018060008373ffffffffffffffffffffffffffffffffffffffff1673ffffffffffffffffffffffffffffffffffffffff16815260200190815260200160002060006101000a81548160ff0219169083151502179055507ff5b72f6f3bcef5d31717c3965dcb7239629b10b6ad3bd9b99ec3ca4dced745e48160405161050b91906107f7565b60405180910390a150565b828054610522906109c7565b90600052602060002090601f016020900481019282610544576000855561058b565b82601f1061055d57805160ff191683800117855561058b565b8280016001018555821561058b579182015b8281111561058a57825182559160200191906001019061056f565b5b509050610598919061059c565b5090565b5b808211156105b557600081600090555060010161059d565b5090565b60006105cc6105c7846108f0565b6108bf565b9050828152602081018484840111156105e457600080fd5b6105ef848285610985565b509392505050565b60008135905061060681610a68565b92915050565b600082601f83011261061d57600080fd5b813561062d8482602086016105b9565b91505092915050565b60006020828403121561064857600080fd5b6000610656848285016105f7565b91505092915050565b6000806040838503121561067257600080fd5b600083013567ffffffffffffffff81111561068c57600080fd5b6106988582860161060c565b925050602083013567ffffffffffffffff8111156106b557600080fd5b6106c18582860161060c565b9150509250929050565b6106d481610947565b82525050565b6106e381610959565b82525050565b60006106f482610920565b6106fe818561092b565b935061070e818560208601610994565b61071781610a57565b840191505092915050565b600061072d82610920565b610737818561093c565b9350610747818560208601610994565b80840191505092915050565b6000610760601b8361092b565b91507f50726f66696c6520697320616c726561647920766572696669656400000000006000830152602082019050919050565b60006107a060168361092b565b91507f50726f66696c6520646f6573206e6f74206578697374000000000000000000006000830152602082019050919050565b60006107df8285610722565b91506107eb8284610722565b91508190509392505050565b600060208201905061080c60008301846106cb565b92915050565b600060408201905061082760008301856106cb565b818103602083015261083981846106e9565b90509392505050565b600060208201905061085760008301846106da565b92915050565b6000602082019050818103600083015261087781846106e9565b905092915050565b6000602082019050818103600083015261089881610753565b9050919050565b600060208201905081810360008301526108b881610793565b9050919050565b6000604051905081810181811067ffffffffffffffff821117156108e6576108e5610a28565b5b8060405250919050565b600067ffffffffffffffff82111561090b5761090a610a28565b5b601f19601f8301169050602081019050919050565b600081519050919050565b600082825260208201905092915050565b600081905092915050565b600061095282610965565b9050919050565b60008115159050919050565b600073ffffffffffffffffffffffffffffffffffffffff82169050919050565b82818337600083830152505050565b60005b838110156109b2578082015181840152602081019050610997565b838111156109c1576000848401525b50505050565b600060028204905060018216806109df57607f821691505b602082108114156109f3576109f26109f9565b5b50919050565b7f4e487b7100000000000000000000000000000000000000000000000000000000600052602260045260246000fd5b7f4e487b7100000000000000000000000000000000000000000000000000000000600052604160045260246000fd5b6000601f19601f8301169050919050565b610a7181610947565b8114610a7c57600080fd5b5056fea2646970667358221220e4d6bcd219be00c59baac5a4ee65434acfd196497e7b96f406b6f0f013add13064736f6c63430008000033",
  "immutableReferences": {},
  "source": "// SPDX-License-Identifier: MIT\npragma solidity ^0.8.0;\n\ncontract ProfileVerification {\n    mapping(address => string) public profiles;\n    mapping(address => bool) public verified;\n    \n    event ProfileCreated(address user, string hashedProfile);\n    event ProfileVerified(address user);\n\n    // Function to store user profile data (name and email)\n    function createProfile(string memory name, string memory email) public {\n        // Hash the name and email to save in the contract (or store them directly)\n        string memory hashedProfile = string(abi.encodePacked(name, email));\n        profiles[msg.sender] = hashedProfile; // Store the hashed data\n        emit ProfileCreated(msg.sender, hashedProfile);\n    }\n\n    // Function to get profile data (hashed)\n    function getProfile(address user) public view returns (string memory) {\n        return profiles[user];\n    }\n\n    // Function to verify the profile\n    function verifyProfile(address user) public {\n        require(bytes(profiles[user]).length > 0, \"Profile does not exist\");\n        require(!verified[user], \"Profile is already verified\"); // New check\n        verified[user] = true;\n        emit ProfileVerified(user); // Emit an event for successful verification\n    }\n}\n",
  "sourcePath": "/home/atharv/.programs/projects/blockhain-profile-verification/contracts/ProfileVerification.sol",
  "compiler": {
    "name": "solc",
    "version": "0.8.0+commit.c7dfd78e.Emscripten.clang"
  },
  "schemaVersion": "3.4.16",
  "updatedAt": "2025-01-03T18:40:14.283Z",
  "networkType": "ethereum",
  "devdoc": {
    "kind": "dev",
    "methods": {},
    "version": 1
  },
  "userdoc": {
    "kind": "user",
    "methods": {},
    "version": 1
  }
}