{
  "contractName": "ProfileVerification",
  "abi": [
    {
      "anonymous": false,
      "inputs": [
        {
          "indexed": false,
          "internalType": "address",
          "name": "user",
          "type": "address"
        },
        {
          "indexed": false,
          "internalType": "string",
          "name": "hashedProfile",
          "type": "string"
        }
      ],
      "name": "ProfileCreated",
      "type": "event"
    },
    {
      "anonymous": false,
      "inputs": [
        {
          "indexed": false,
          "internalType": "address",
          "name": "user",
          "type": "address"
        }
      ],
      "name": "ProfileVerified",
      "type": "event"
    },
    {
      "inputs": [
        {
          "internalType": "string",
          "name": "",
          "type": "string"
        }
      ],
      "name": "emailToAddress",
      "outputs": [
        {
          "internalType": "address",
          "name": "",
          "type": "address"
        }
      ],
      "stateMutability": "view",
      "type": "function",
      "constant": true
    },
    {
      "inputs": [
        {
          "internalType": "address",
          "name": "",
          "type": "address"
        }
      ],
      "name": "profiles",
      "outputs": [
        {
          "internalType": "string",
          "name": "",
          "type": "string"
        }
      ],
      "stateMutability": "view",
      "type": "function",
      "constant": true
    },
    {
      "inputs": [
        {
          "internalType": "address",
          "name": "",
          "type": "address"
        }
      ],
      "name": "verified",
      "outputs": [
        {
          "internalType": "bool",
          "name": "",
          "type": "bool"
        }
      ],
      "stateMutability": "view",
      "type": "function",
      "constant": true
    },
    {
      "inputs": [
        {
          "internalType": "string",
          "name": "name",
          "type": "string"
        },
        {
          "internalType": "string",
          "name": "email",
          "type": "string"
        }
      ],
      "name": "createProfile",
      "outputs": [],
      "stateMutability": "nonpayable",
      "type": "function"
    },
    {
      "inputs": [
        {
          "internalType": "string",
          "name": "email",
          "type": "string"
        }
      ],
      "name": "verifyProfile",
      "outputs": [],
      "stateMutability": "nonpayable",
      "type": "function"
    }
  ],
  "bytecode": "0x608060405234801561001057600080fd5b50610c3e806100206000396000f3fe608060405234801561001057600080fd5b50600436106100575760003560e01c80630db065f41461005c578063ba1feb8a1461008c578063bbe15627146100a8578063c798199d146100d8578063ea78dcbf146100f4575b600080fd5b610076600480360381019061007191906106e1565b610124565b60405161008391906109ab565b60405180910390f35b6100a660048036038101906100a1919061074b565b610144565b005b6100c260048036038101906100bd91906106e1565b610305565b6040516100cf91906109c6565b60405180910390f35b6100f260048036038101906100ed919061070a565b6103a5565b005b61010e6004803603810190610109919061070a565b610578565b60405161011b9190610960565b60405180910390f35b60026020528060005260406000206000915054906101000a900460ff1681565b600073ffffffffffffffffffffffffffffffffffffffff1660018260405161016c9190610925565b908152602001604051809103902060009054906101000a900473ffffffffffffffffffffffffffffffffffffffff1673ffffffffffffffffffffffffffffffffffffffff16146101f1576040517f08c379a00000000000000000000000000000000000000000000000000000000081526004016101e890610a28565b60405180910390fd5b6000828260405160200161020692919061093c565b6040516020818303038152906040529050806000803373ffffffffffffffffffffffffffffffffffffffff1673ffffffffffffffffffffffffffffffffffffffff16815260200190815260200160002090805190602001906102699291906105c1565b503360018360405161027b9190610925565b908152602001604051809103902060006101000a81548173ffffffffffffffffffffffffffffffffffffffff021916908373ffffffffffffffffffffffffffffffffffffffff1602179055507fbafddecbd1dec1c1afb76d693f1de16901f521bdf29a02438e3e6806c0b8d94833826040516102f892919061097b565b60405180910390a1505050565b6000602052806000526040600020600091509050805461032490610b50565b80601f016020809104026020016040519081016040528092919081815260200182805461035090610b50565b801561039d5780601f106103725761010080835404028352916020019161039d565b820191906000526020600020905b81548152906001019060200180831161038057829003601f168201915b505050505081565b60006001826040516103b79190610925565b908152602001604051809103902060009054906101000a900473ffffffffffffffffffffffffffffffffffffffff169050600073ffffffffffffffffffffffffffffffffffffffff168173ffffffffffffffffffffffffffffffffffffffff161415610458576040517f08c379a000000000000000000000000000000000000000000000000000000000815260040161044f90610a08565b60405180910390fd5b600260008273ffffffffffffffffffffffffffffffffffffffff1673ffffffffffffffffffffffffffffffffffffffff16815260200190815260200160002060009054906101000a900460ff16156104e5576040517f08c379a00000000000000000000000000000000000000000000000000000000081526004016104dc906109e8565b60405180910390fd5b6001600260008373ffffffffffffffffffffffffffffffffffffffff1673ffffffffffffffffffffffffffffffffffffffff16815260200190815260200160002060006101000a81548160ff0219169083151502179055507ff5b72f6f3bcef5d31717c3965dcb7239629b10b6ad3bd9b99ec3ca4dced745e48160405161056c9190610960565b60405180910390a15050565b6001818051602081018201805184825260208301602085012081835280955050505050506000915054906101000a900473ffffffffffffffffffffffffffffffffffffffff1681565b8280546105cd90610b50565b90600052602060002090601f0160209004810192826105ef5760008555610636565b82601f1061060857805160ff1916838001178555610636565b82800160010185558215610636579182015b8281111561063557825182559160200191906001019061061a565b5b5090506106439190610647565b5090565b5b80821115610660576000816000905550600101610648565b5090565b600061067761067284610a79565b610a48565b90508281526020810184848401111561068f57600080fd5b61069a848285610b0e565b509392505050565b6000813590506106b181610bf1565b92915050565b600082601f8301126106c857600080fd5b81356106d8848260208601610664565b91505092915050565b6000602082840312156106f357600080fd5b6000610701848285016106a2565b91505092915050565b60006020828403121561071c57600080fd5b600082013567ffffffffffffffff81111561073657600080fd5b610742848285016106b7565b91505092915050565b6000806040838503121561075e57600080fd5b600083013567ffffffffffffffff81111561077857600080fd5b610784858286016106b7565b925050602083013567ffffffffffffffff8111156107a157600080fd5b6107ad858286016106b7565b9150509250929050565b6107c081610ad0565b82525050565b6107cf81610ae2565b82525050565b60006107e082610aa9565b6107ea8185610ab4565b93506107fa818560208601610b1d565b61080381610be0565b840191505092915050565b600061081982610aa9565b6108238185610ac5565b9350610833818560208601610b1d565b80840191505092915050565b600061084c601b83610ab4565b91507f50726f66696c6520697320616c726561647920766572696669656400000000006000830152602082019050919050565b600061088c602683610ab4565b91507f50726f66696c652077697468207468697320656d61696c20646f6573206e6f7460008301527f20657869737400000000000000000000000000000000000000000000000000006020830152604082019050919050565b60006108f2601b83610ab4565b91507f456d61696c20697320616c7265616479207265676973746572656400000000006000830152602082019050919050565b6000610931828461080e565b915081905092915050565b6000610948828561080e565b9150610954828461080e565b91508190509392505050565b600060208201905061097560008301846107b7565b92915050565b600060408201905061099060008301856107b7565b81810360208301526109a281846107d5565b90509392505050565b60006020820190506109c060008301846107c6565b92915050565b600060208201905081810360008301526109e081846107d5565b905092915050565b60006020820190508181036000830152610a018161083f565b9050919050565b60006020820190508181036000830152610a218161087f565b9050919050565b60006020820190508181036000830152610a41816108e5565b9050919050565b6000604051905081810181811067ffffffffffffffff82111715610a6f57610a6e610bb1565b5b8060405250919050565b600067ffffffffffffffff821115610a9457610a93610bb1565b5b601f19601f8301169050602081019050919050565b600081519050919050565b600082825260208201905092915050565b600081905092915050565b6000610adb82610aee565b9050919050565b60008115159050919050565b600073ffffffffffffffffffffffffffffffffffffffff82169050919050565b82818337600083830152505050565b60005b83811015610b3b578082015181840152602081019050610b20565b83811115610b4a576000848401525b50505050565b60006002820490506001821680610b6857607f821691505b60208210811415610b7c57610b7b610b82565b5b50919050565b7f4e487b7100000000000000000000000000000000000000000000000000000000600052602260045260246000fd5b7f4e487b7100000000000000000000000000000000000000000000000000000000600052604160045260246000fd5b6000601f19601f8301169050919050565b610bfa81610ad0565b8114610c0557600080fd5b5056fea2646970667358221220d2e549d0f43b60337dd7ec15d4b081b8b1443072cfc2bb90dbfc9f0dd23a996464736f6c63430008000033",
  "immutableReferences": {},
  "source": "// SPDX-License-Identifier: MIT\npragma solidity ^0.8.0;\n\ncontract ProfileVerification {\n    mapping(address => string) public profiles;\n    mapping(string => address) public emailToAddress; // New mapping for email to address\n    mapping(address => bool) public verified;\n\n    event ProfileCreated(address user, string hashedProfile);\n    event ProfileVerified(address user);\n\n    // Function to store user profile data (name and email)\n    function createProfile(string memory name, string memory email) public {\n        // Ensure the email is unique\n        require(emailToAddress[email] == address(0), \"Email is already registered\");\n        \n        // Hash the name and email to save in the contract (or store them directly)\n        string memory hashedProfile = string(abi.encodePacked(name, email));\n        profiles[msg.sender] = hashedProfile; // Store the hashed data\n        emailToAddress[email] = msg.sender; // Map email to address\n        emit ProfileCreated(msg.sender, hashedProfile);\n    }\n\n    // Function to verify the profile using email\n    function verifyProfile(string memory email) public {\n        address user = emailToAddress[email]; // Fetch address from email\n        require(user != address(0), \"Profile with this email does not exist\");\n        require(!verified[user], \"Profile is already verified\");\n        verified[user] = true;\n        emit ProfileVerified(user); // Emit an event for successful verification\n    }\n}\n",
  "sourcePath": "/home/atharv/.programs/projects/blockhain-profile-verification/contracts/ProfileVerification.sol",
  "compiler": {
    "name": "solc",
    "version": "0.8.0+commit.c7dfd78e.Emscripten.clang"
  },
  "schemaVersion": "3.4.16",
  "updatedAt": "2025-01-06T05:54:11.859Z",
  "networkType": "ethereum",
  "devdoc": {
    "kind": "dev",
    "methods": {},
    "version": 1
  },
  "userdoc": {
    "kind": "user",
    "methods": {},
    "version": 1
  }
}